{
  "contractName": "InfoContract",
  "abi": [
    {
      "inputs": [],
      "stateMutability": "nonpayable",
      "type": "constructor"
    },
    {
      "anonymous": false,
      "inputs": [
        {
          "indexed": false,
          "internalType": "string",
          "name": "name",
          "type": "string"
        },
        {
          "indexed": false,
          "internalType": "uint256",
          "name": "age",
          "type": "uint256"
        }
      ],
      "name": "Instrutor",
      "type": "event"
    },
    {
      "inputs": [
        {
          "internalType": "string",
          "name": "_name",
          "type": "string"
        },
        {
          "internalType": "uint256",
          "name": "_age",
          "type": "uint256"
        }
      ],
      "name": "setInfo",
      "outputs": [],
      "stateMutability": "nonpayable",
      "type": "function"
    },
    {
      "inputs": [],
      "name": "sagHi",
      "outputs": [
        {
          "internalType": "string",
          "name": "",
          "type": "string"
        }
      ],
      "stateMutability": "pure",
      "type": "function"
    },
    {
      "inputs": [],
      "name": "getInfo",
      "outputs": [
        {
          "internalType": "string",
          "name": "",
          "type": "string"
        },
        {
          "internalType": "uint256",
          "name": "",
          "type": "uint256"
        }
      ],
      "stateMutability": "view",
      "type": "function"
    }
  ],
  "bytecode": "0x608060405234801561000f575f80fd5b506108268061001d5f395ff3fe608060405234801561000f575f80fd5b506004361061003f575f3560e01c80635a9b0b89146100435780637536fc7f146100625780638262963b14610080575b5f80fd5b61004b61009c565b604051610059929190610269565b60405180910390f35b61006a610135565b6040516100779190610297565b60405180910390f35b61009a6004803603810190610095919061041e565b610172565b005b60605f806001548180546100af906104a5565b80601f01602080910402602001604051908101604052809291908181526020018280546100db906104a5565b80156101265780601f106100fd57610100808354040283529160200191610126565b820191905f5260205f20905b81548152906001019060200180831161010957829003601f168201915b50505050509150915091509091565b60606040518060400160405280600281526020017f4869000000000000000000000000000000000000000000000000000000000000815250905090565b815f90816101809190610672565b50806001819055507f368ef6a81c115f6b37517ebc762bb36836e3380997e1c8e3f3d2ba74663aadf85f6001546040516101bb9291906107c2565b60405180910390a15050565b5f81519050919050565b5f82825260208201905092915050565b5f5b838110156101fe5780820151818401526020810190506101e3565b5f8484015250505050565b5f601f19601f8301169050919050565b5f610223826101c7565b61022d81856101d1565b935061023d8185602086016101e1565b61024681610209565b840191505092915050565b5f819050919050565b61026381610251565b82525050565b5f6040820190508181035f8301526102818185610219565b9050610290602083018461025a565b9392505050565b5f6020820190508181035f8301526102af8184610219565b905092915050565b5f604051905090565b5f80fd5b5f80fd5b5f80fd5b5f80fd5b7f4e487b71000000000000000000000000000000000000000000000000000000005f52604160045260245ffd5b61030682610209565b810181811067ffffffffffffffff82111715610325576103246102d0565b5b80604052505050565b5f6103376102b7565b905061034382826102fd565b919050565b5f67ffffffffffffffff821115610362576103616102d0565b5b61036b82610209565b9050602081019050919050565b828183375f83830152505050565b5f61039861039384610348565b61032e565b9050828152602081018484840111156103b4576103b36102cc565b5b6103bf848285610378565b509392505050565b5f82601f8301126103db576103da6102c8565b5b81356103eb848260208601610386565b91505092915050565b6103fd81610251565b8114610407575f80fd5b50565b5f81359050610418816103f4565b92915050565b5f8060408385031215610434576104336102c0565b5b5f83013567ffffffffffffffff811115610451576104506102c4565b5b61045d858286016103c7565b925050602061046e8582860161040a565b9150509250929050565b7f4e487b71000000000000000000000000000000000000000000000000000000005f52602260045260245ffd5b5f60028204905060018216806104bc57607f821691505b6020821081036104cf576104ce610478565b5b50919050565b5f819050815f5260205f209050919050565b5f6020601f8301049050919050565b5f82821b905092915050565b5f600883026105317fffffffffffffffffffffffffffffffffffffffffffffffffffffffffffffffff826104f6565b61053b86836104f6565b95508019841693508086168417925050509392505050565b5f819050919050565b5f61057661057161056c84610251565b610553565b610251565b9050919050565b5f819050919050565b61058f8361055c565b6105a361059b8261057d565b848454610502565b825550505050565b5f90565b6105b76105ab565b6105c2818484610586565b505050565b5b818110156105e5576105da5f826105af565b6001810190506105c8565b5050565b601f82111561062a576105fb816104d5565b610604846104e7565b81016020851015610613578190505b61062761061f856104e7565b8301826105c7565b50505b505050565b5f82821c905092915050565b5f61064a5f198460080261062f565b1980831691505092915050565b5f610662838361063b565b9150826002028217905092915050565b61067b826101c7565b67ffffffffffffffff811115610694576106936102d0565b5b61069e82546104a5565b6106a98282856105e9565b5f60209050601f8311600181146106da575f84156106c8578287015190505b6106d28582610657565b865550610739565b601f1984166106e8866104d5565b5f5b8281101561070f578489015182556001820191506020850194506020810190506106ea565b8683101561072c5784890151610728601f89168261063b565b8355505b6001600288020188555050505b505050505050565b5f815461074d816104a5565b61075781866101d1565b9450600182165f81146107715760018114610787576107b9565b60ff1983168652811515602002860193506107b9565b610790856104d5565b5f5b838110156107b157815481890152600182019150602081019050610792565b808801955050505b50505092915050565b5f6040820190508181035f8301526107da8185610741565b90506107e9602083018461025a565b939250505056fea26469706673582212204d4487acdb0d722fec454a92272a009258068378937542102f1216e3fba02d3464736f6c63430008140033",
  "immutableReferences": {},
  "source": "// SPDX-License-Identifier: MIT\npragma solidity >=0.4.22 <0.9.0;\n\ncontract InfoContract {\n  string name;\n  uint256 age;\n\n  constructor() {\n\n  }\n  event Instrutor(string name,uint256 age);\n  \n  function setInfo(string memory _name,uint256 _age) public{\n    name = _name;\n    age = _age;\n    emit Instrutor(name, age);\n  }\n\n  function sagHi() public pure returns (string memory) {\n    return \"Hi\";\n    \n  }\n\n  function getInfo() public view returns (string memory,uint256){\n    return (name,age);\n  }\n\n}\n  \n",
  "sourcePath": "/Users/lijinhai/Desktop/my_project/new-truffle-demo/contracts/InfoContract.sol",
  "compiler": {
    "name": "solc",
    "version": "0.8.20+commit.a1b79de6.Emscripten.clang"
  },
  "schemaVersion": "3.4.16",
  "updatedAt": "2024-12-01T15:21:17.511Z",
  "devdoc": {
    "kind": "dev",
    "methods": {},
    "version": 1
  },
  "userdoc": {
    "kind": "user",
    "methods": {},
    "version": 1
  }
}